:040000000DEF00F010
:0400080095EF03F07D
:10001800FF00FAEF03F080AE14EF00F016EF00F0E7
:10002800B9EF00F082A61BEF00F01DEF00F045EFDE
:1000380000F06000BBF0D9FF6000BFF0DAFF020EED
:10004800DF6E6F0010FE1BF06F0004FE1CF06F00E7
:1000580008FE1DF0835006EC02F020EE01F02E5051
:10006800D9262F50DA2260006FF0DEFF600073F0AF
:10007800DEFF600077F0DEFF60007BF0DEFF65EFFB
:1000880000F06000BBF0D9FF6000BFF0DAFF010E9E
:10009800DF6E6F0008FE1BF0815059EC03F020EE74
:1000A80001F02E50D9262F50DA2260006FF0DEFFC3
:1000B800600073F0DEFF600077F0DEFF60007BF029
:1000C800DEFF20EE05F02E50D9262F50DA226F00E1
:1000D80017FEDFFF20EE06F02E50D9262F50DA2229
:1000E8006F001BFEDFFF20EE07F02E50D9262F50A1
:1000F800DA226F001FFEDFFF20EE08F02E50D9260F
:100108002F50DA226F0023FEDFFF20EE09F02E5079
:10011800D9262F50DA226F0027FEDFFF20EE0AF0E3
:100128002E50D9262F50DA226F002BFEDFFF20EE4B
:100138000BF02E50D9262F50DA226F002FFEDFFF4A
:1001480020EE0CF02E50D9262F50DA226F0033FE05
:10015800DFFF20EE0DF02E50D9262F50DA226F0047
:1001680037FEDFFF809E65EF01F03701F0AFBFEF8C
:1001780000F0C1EF00F065EF01F0F2A7C6EF00F064
:10018800C8EF00F0F0EF00F06000BBF0D9FF6000AE
:10019800BFF0DAFF020EDF6E6D00D0FF1BF06D00BE
:1001A800C4FF1CF06D00C8FF1DF0F35106EC02F00F
:1001B80020EE01F02E50D9262F50DA2260006FF081
:1001C800DEFF600073F0DEFF600077F0DEFF6000A6
:1001D8007BF0DEFF10EF01F06000BBF0D9FF60009C
:1001E800BFF0DAFF010EDF6E6D00C8FF1BF0F151A2
:1001F80059EC03F020EE01F02E50D9262F50DA22C8
:1002080060006FF0DEFF600073F0DEFF600077F0E3
:10021800DEFF60007BF0DEFF20EE05F02E50D926D1
:100228002F50DA226D00D7FFDFFF20EE06F02E50A8
:10023800D9262F50DA226D00DBFFDFFF20EE07F012
:100248002E50D9262F50DA226D00DFFFDFFF20EE77
:1002580008F02E50D9262F50DA226D00E3FFDFFF79
:1002680020EE09F02E50D9262F50DA226D00E7FF34
:10027800DFFF20EE0AF02E50D9262F50DA226D002B
:10028800EBFFDFFF20EE0BF02E50D9262F50DA229D
:100298006D00EFFFDFFF20EE0CF02E50D9262F5017
:1002A800DA226D00F3FFDFFF20EE0DF02E50D92685
:1002B8002F50DA226D00F7FFDFFF3701F09FB7EF0D
:1002C80000F012000D0E2E6E000E2F6E0FEC00F0D7
:1002D8002F0E0E1808E10F0410101110D8A477EF94
:1002E80001F079EF01F07DEF01F0010E026EF40EDE
:1002F800016EFE0E0E180F1010101110D8A487EF03
:1003080001F089EF01F0CDEF01F01328D8A48FEFA9
:1003180001F091EF01F0C9EF01F01428D8A497EF8C
:1003280001F099EF01F0C9EF01F01528D8A49FEF6B
:1003380001F0A1EF01F0C9EF01F01628D8A4A7EF4A
:1003480001F0A9EF01F0C9EF01F01728D8A4AFEF29
:1003580001F0B1EF01F0C9EF01F01828D8A4B7EF08
:1003680001F0B9EF01F0C9EF01F01928D8A4BFEFE7
:1003780001F0C1EF01F0C9EF01F01A28D8B4C7EFB6
:1003880001F0C9EF01F0CDEF01F0010E026EF40E9D
:10039800016E520E0E180F1010101110D8A4D7EFBE
:1003A80001F0D9EF01F0E7EF01F01850F00B400A27
:1003B800D8A4E1EF01F0E3EF01F0E7EF01F0010E5F
:1003C800026EF40E016E960E0E1809E1020E0F1859
:1003D80010101110D8A4F3EF01F0F5EF01F003EFBE
:1003E80002F018500F0B0A0AD8A4FDEF01F0FFEF36
:1003F80001F003EF02F0010E026EF40E016E010E21
:100408000C6E1200236E000E2A6E000E2B6E000E6C
:100418002C6E000E2D6E1D50030B286E1D38E84201
:10042800070B296E1C501F6E206AD8901F36203685
:10043800D8901F362036D8901F3620361FC02AF095
:1004480020C02BF0000E2BBEFF0E2C6E2D6E2950F7
:100458002A242A6E000E2B202B6E000E2C202C6EC8
:10046800000E2D202D6E2AC01FF02BC020F02CC0AE
:1004780021F02DC022F0020ED8901F3620362136EA
:100488002236E82E40EF02F01FC02AF020C02BF0E1
:1004980021C02CF022C02DF028502A242A6E000EEC
:1004A8002B202B6E000E2C202C6E000E2D202D6E76
:1004B8002AC020F02BC021F02CC022F01F6A1FC0D8
:1004C8002AF020C02BF021C02CF022C02DF02350A0
:1004D8002A242A6E000E2B202B6E000E2C202C6E48
:1004E800000E2D202D6E2AC020F02BC021F02CC02C
:1004F80022F01F6A1FC02AF020C02BF021C02CF068
:1005080022C02DF01B502A242A6E000E2B202B6EA1
:10051800000E2C202C6E000E2D202D6E2AC024F0EB
:100528002BC025F02CC026F02DC027F024C01BF0CE
:1005380025C01CF026C01DF027C01EF01200800E3A
:100548008F6E8E50E00B800AD8A4ADEF02F0AFEFAB
:1005580002F0A5EF02F0000E916E000E3701006F59
:10056800000EBA6F000EBB6F000EB86F000EB96FA9
:10057800000EBE6F000EBF6F000EBC6F000EBD6F89
:10058800000EA26F000EA36F000EA06F000EA16FE9
:10059800000EA66F000EA76F000EA46F000EA56FC9
:1005A800000EAA6F000EAB6F000EA86F000EA96FA9
:1005B800000EAE6F000EAF6F000EAC6F000EAD6F89
:1005C800000EB26F000EB36F000EB06F000EB16F69
:1005D800000EB66F000EB76F000EB46F000EB56F49
:1005E800010E036F980E046F010E056F900E306EAA
:1005F800090E316EB7EC04F03901A59195818E0E84
:10060800306E090E316EB2EC04F03901A59D958D5E
:10061800000E8F6E6F0038FE32F0E00E3216D8A44E
:1006280018EF03F01AEF03F00EEF03F01200015079
:100638000210D8B422EF03F024EF03F032EF03F0F6
:100648000106D8A00206BC8A01500210D8A42FEFD8
:1006580003F031EF03F032EF03F0BC9A335034105B
:10066800D8B439EF03F03BEF03F058EF03F033064B
:10067800D8A0340633503410D8A445EF03F047EF20
:1006880003F04CEF03F0010E346EF40E336EBC88A9
:10069800900E335C010E3458D8B055EF03F057EF85
:1006A80003F058EF03F0BC981200216E21501F6E22
:1006B800206AD8901F362036D8901F362036D8901A
:1006C8001F3620361FC026F020C027F0000E27BE98
:1006D800FF0E286E296E1BC01FF0050E206ED890E5
:1006E8001F32202E73EF03F01F502624266E000EB3
:1006F8002720276E000E2820286E000E2920296E3C
:1007080026C022F027C023F028C024F029C025F0F5
:1007180022C01BF023C01CF024C01DF025C01EF011
:100728001200390199A39BEF03F09DEF03F0A8EFA6
:1007380003F0A9A3A2EF03F0A4EF03F0A8EF03F0DE
:10074800BCEC04F0CCEF03F095ADADEF03F0AFEFE8
:1007580003F0BAEF03F0A5ADB4EF03F0B6EF03F082
:10076800BAEF03F080EC04F0CCEF03F095A1BFEFF3
:1007780003F0C1EF03F0CCEF03F0A5A1C6EF03F03F
:10078800C8EF03F0CCEF03F090EC04F0CCEF03F0EB
:100798001100000EBA6E000EBB6E000EBC6EC00ECD
:1007A800C26E080EC36E470EC46EA80E3A01606F83
:1007B800F00E506F4069000E816F000E516F000EF1
:1007C800416F060E616F000E426F000E526F000EF1
:1007D800626F436953696369446954696469080EBF
:1007E800846F0B0EED6F330E0C6F12008A0EF66ECF
:1007F800090EF76E000EF86E09006F00D4FF33F093
:1008080009006F00D4FF34F000EE01F01A0EEE6A12
:10081800E806FDE1080ED56E000ED66E000ED76E06
:10082800000EF86E000146EF04F003500410D8B42F
:1008380020EF04F022EF04F02FEF04F002D82FEF9E
:1008480004F00500FA6E0350FD6E0450FE6EF85079
:10085800FF6EFA5012001200020E966E000E956E90
:10086800000E976EF90E936E000E926E3901A993E1
:1008780099838C0E306E090E316EADEC04F0E00EEB
:10088800946E1200A0EC04F0D28ECC0E306E020EE4
:10089800316EB7EC04F0C1EC04F0360E306E060E83
:1008A800316EADEC04F057EF04F00DEF00F0200EC0
:1008B8003901D96F000EDB6F000EDD6F020EDF6F9E
:1008C800000EDE6FDCA16BEF04F06DEF04F066EF55
:1008D80004F01200000E3901C06F000EC16F000E47
:1008E800C26F000EC36F000EC46F000EC56F000EFE
:1008F800C66F000EC76F120002D88DEF04F0050016
:10090800FA6E0550FD6E0650FE6EF850FF6EFA50F6
:1009180012003901A59D120002D89DEF04F00500D0
:10092800FA6E0750FD6E0850FE6EF850FF6EFA50D2
:1009380012003901A5911200C3EC04F06EEC04F02A
:10094800CDEC03F05BEC04F030EC04F0A3EC02F027
:10095800120030C003F031C004F0120030C005F0BE
:1009680031C006F0120030C007F031C008F01200A4
:100978003901A99319EC04F01200948E1200D29A4E
:0A0988001200F40112001200120028
:020000040020DA
:10000000FF0FFF0FFF0FFF0FFF0FFF0FFF0FFF0F80
:020000040030CA
:0A000000A9FFF7FF9FFFFFFFFFFFBE
:00000001FF
